{
  "contractName": "MetaTransactionStorage",
  "abi": [
    {
      "anonymous": false,
      "inputs": [
        {
          "indexed": true,
          "internalType": "address",
          "name": "recoveredSigner",
          "type": "address"
        }
      ],
      "name": "SignerRecovered",
      "type": "event"
    },
    {
      "anonymous": false,
      "inputs": [
        {
          "indexed": true,
          "internalType": "address",
          "name": "signer",
          "type": "address"
        },
        {
          "indexed": false,
          "internalType": "string",
          "name": "name",
          "type": "string"
        },
        {
          "indexed": false,
          "internalType": "string",
          "name": "phoneNumber",
          "type": "string"
        }
      ],
      "name": "UserDataStored",
      "type": "event"
    },
    {
      "constant": true,
      "inputs": [
        {
          "internalType": "bytes32",
          "name": "",
          "type": "bytes32"
        }
      ],
      "name": "executedTx",
      "outputs": [
        {
          "internalType": "bool",
          "name": "",
          "type": "bool"
        }
      ],
      "payable": false,
      "stateMutability": "view",
      "type": "function"
    },
    {
      "constant": true,
      "inputs": [
        {
          "internalType": "address",
          "name": "",
          "type": "address"
        }
      ],
      "name": "users",
      "outputs": [
        {
          "internalType": "string",
          "name": "name",
          "type": "string"
        },
        {
          "internalType": "string",
          "name": "phoneNumber",
          "type": "string"
        }
      ],
      "payable": false,
      "stateMutability": "view",
      "type": "function"
    },
    {
      "constant": true,
      "inputs": [
        {
          "internalType": "address",
          "name": "signer",
          "type": "address"
        },
        {
          "internalType": "string",
          "name": "name",
          "type": "string"
        },
        {
          "internalType": "string",
          "name": "phoneNumber",
          "type": "string"
        }
      ],
      "name": "getMessageHash",
      "outputs": [
        {
          "internalType": "bytes32",
          "name": "",
          "type": "bytes32"
        }
      ],
      "payable": false,
      "stateMutability": "pure",
      "type": "function"
    },
    {
      "constant": false,
      "inputs": [
        {
          "internalType": "address",
          "name": "signer",
          "type": "address"
        },
        {
          "internalType": "string",
          "name": "name",
          "type": "string"
        },
        {
          "internalType": "string",
          "name": "phoneNumber",
          "type": "string"
        },
        {
          "internalType": "bytes",
          "name": "signature",
          "type": "bytes"
        }
      ],
      "name": "storeData",
      "outputs": [],
      "payable": false,
      "stateMutability": "nonpayable",
      "type": "function"
    },
    {
      "constant": true,
      "inputs": [
        {
          "internalType": "bytes32",
          "name": "message",
          "type": "bytes32"
        },
        {
          "internalType": "bytes",
          "name": "signature",
          "type": "bytes"
        }
      ],
      "name": "recoverSigner",
      "outputs": [
        {
          "internalType": "address",
          "name": "",
          "type": "address"
        }
      ],
      "payable": false,
      "stateMutability": "pure",
      "type": "function"
    },
    {
      "constant": true,
      "inputs": [
        {
          "internalType": "bytes",
          "name": "sig",
          "type": "bytes"
        }
      ],
      "name": "splitSignature",
      "outputs": [
        {
          "internalType": "bytes32",
          "name": "r",
          "type": "bytes32"
        },
        {
          "internalType": "bytes32",
          "name": "s",
          "type": "bytes32"
        },
        {
          "internalType": "uint8",
          "name": "v",
          "type": "uint8"
        }
      ],
      "payable": false,
      "stateMutability": "pure",
      "type": "function"
    }
  ],
  "bytecode": "0x608060405234801561001057600080fd5b50610d72806100206000396000f3fe608060405234801561001057600080fd5b50600436106100625760003560e01c806331e02683146100675780636cf813d91461022757806397aba7f914610372578063a7bb580314610439578063a87430ba146104fe578063cdb2c04214610602575b600080fd5b6102256004803603608081101561007d57600080fd5b6001600160a01b038235169190810190604081016020820135600160201b8111156100a757600080fd5b8201836020820111156100b957600080fd5b803590602001918460018302840111600160201b831117156100da57600080fd5b91908080601f0160208091040260200160405190810160405280939291908181526020018383808284376000920191909152509295949360208101935035915050600160201b81111561012c57600080fd5b82018360208201111561013e57600080fd5b803590602001918460018302840111600160201b8311171561015f57600080fd5b91908080601f0160208091040260200160405190810160405280939291908181526020018383808284376000920191909152509295949360208101935035915050600160201b8111156101b157600080fd5b8201836020820111156101c357600080fd5b803590602001918460018302840111600160201b831117156101e457600080fd5b91908080601f016020809104026020016040519081016040528093929190818152602001838380828437600092019190915250929550610633945050505050565b005b6103606004803603606081101561023d57600080fd5b6001600160a01b038235169190810190604081016020820135600160201b81111561026757600080fd5b82018360208201111561027957600080fd5b803590602001918460018302840111600160201b8311171561029a57600080fd5b91908080601f0160208091040260200160405190810160405280939291908181526020018383808284376000920191909152509295949360208101935035915050600160201b8111156102ec57600080fd5b8201836020820111156102fe57600080fd5b803590602001918460018302840111600160201b8311171561031f57600080fd5b91908080601f01602080910402602001604051908101604052809392919081815260200183838082843760009201919091525092955061091d945050505050565b60408051918252519081900360200190f35b61041d6004803603604081101561038857600080fd5b81359190810190604081016020820135600160201b8111156103a957600080fd5b8201836020820111156103bb57600080fd5b803590602001918460018302840111600160201b831117156103dc57600080fd5b91908080601f0160208091040260200160405190810160405280939291908181526020018383808284376000920191909152509295506109fd945050505050565b604080516001600160a01b039092168252519081900360200190f35b6104dd6004803603602081101561044f57600080fd5b810190602081018135600160201b81111561046957600080fd5b82018360208201111561047b57600080fd5b803590602001918460018302840111600160201b8311171561049c57600080fd5b91908080601f016020809104026020016040519081016040528093929190818152602001838380828437600092019190915250929550610ad8945050505050565b60408051938452602084019290925260ff1682820152519081900360600190f35b6105246004803603602081101561051457600080fd5b50356001600160a01b0316610b51565b604051808060200180602001838103835285818151815260200191508051906020019080838360005b8381101561056557818101518382015260200161054d565b50505050905090810190601f1680156105925780820380516001836020036101000a031916815260200191505b50838103825284518152845160209182019186019080838360005b838110156105c55781810151838201526020016105ad565b50505050905090810190601f1680156105f25780820380516001836020036101000a031916815260200191505b5094505050505060405180910390f35b61061f6004803603602081101561061857600080fd5b5035610c8d565b604080519115158252519081900360200190f35b6001600160a01b03841661067f576040805162461bcd60e51b815260206004820152600e60248201526d24b73b30b634b21039b4b3b732b960911b604482015290519081900360640190fd5b600061068c85858561091d565b60008181526001602052604090205490915060ff16156106f3576040805162461bcd60e51b815260206004820152601c60248201527f5472616e73616374696f6e20616c726561647920657865637574656400000000604482015290519081900360640190fd5b60006106ff82846109fd565b9050856001600160a01b0316816001600160a01b03161461075b576040805162461bcd60e51b8152602060048201526011602482015270496e76616c6964207369676e617475726560781b604482015290519081900360640190fd5b60408051808201825286815260208082018790526001600160a01b038916600090815280825292909220815180519293919261079a9284920190610ca2565b5060208281015180516107b39260018501920190610ca2565b5050506000828152600160208181526040808420805460ff1916909317909255815182815288519281019290925287516001600160a01b038a16937f58d873ae86741d5d9c2b1d9e71407135180f1d599d6a97fa02701f35eaa016d7938a938a939192839283830192606085019290880191908190849084905b8381101561084557818101518382015260200161082d565b50505050905090810190601f1680156108725780820380516001836020036101000a031916815260200191505b50838103825284518152845160209182019186019080838360005b838110156108a557818101518382015260200161088d565b50505050905090810190601f1680156108d25780820380516001836020036101000a031916815260200191505b5094505050505060405180910390a26040516001600160a01b038216907f30a9cba22f04abaefbfe0de03bdeaf183347f0a666239ffcc91dffbbbd7cf65f90600090a2505050505050565b600083838360405160200180846001600160a01b03166001600160a01b031660601b815260140183805190602001908083835b6020831061096f5780518252601f199092019160209182019101610950565b51815160209384036101000a600019018019909216911617905285519190930192850191508083835b602083106109b75780518252601f199092019160209182019101610998565b6001836020036101000a03801982511681845116808217855250505050505090500193505050506040516020818303038152906040528051906020012090509392505050565b6000808360405160200180807f19457468657265756d205369676e6564204d6573736167653a0a333200000000815250601c018281526020019150506040516020818303038152906040528051906020012090506000806000610a5f86610ad8565b92509250925060018482858560405160008152602001604052604051808581526020018460ff1660ff1681526020018381526020018281526020019450505050506020604051602081039080840390855afa158015610ac2573d6000803e3d6000fd5b5050604051601f19015198975050505050505050565b60008060008351604114610b33576040805162461bcd60e51b815260206004820152601860248201527f496e76616c6964207369676e6174757265206c656e6774680000000000000000604482015290519081900360640190fd5b50505060208101516040820151606090920151909260009190911a90565b6000602081815291815260409081902080548251601f600260001961010060018616150201909316929092049182018590048502810185019093528083529092839190830182828015610be55780601f10610bba57610100808354040283529160200191610be5565b820191906000526020600020905b815481529060010190602001808311610bc857829003601f168201915b505050505090806001018054600181600116156101000203166002900480601f016020809104026020016040519081016040528092919081815260200182805460018160011615610100020316600290048015610c835780601f10610c5857610100808354040283529160200191610c83565b820191906000526020600020905b815481529060010190602001808311610c6657829003601f168201915b5050505050905082565b60016020526000908152604090205460ff1681565b828054600181600116156101000203166002900490600052602060002090601f016020900481019282601f10610ce357805160ff1916838001178555610d10565b82800160010185558215610d10579182015b82811115610d10578251825591602001919060010190610cf5565b50610d1c929150610d20565b5090565b610d3a91905b80821115610d1c5760008155600101610d26565b9056fea265627a7a7231582054ec03622a7a2b1a1164510908b7edcc0e6eedbc44176084eeabb4acddc5898964736f6c63430005100032",
  "source": "// SPDX-License-Identifier: MIT\r\npragma solidity ^0.5.16;\r\n\r\ncontract MetaTransactionStorage {\r\n    struct User {\r\n        string name;\r\n        string phoneNumber;\r\n    }\r\n\r\n    mapping(address => User) public users;\r\n    mapping(bytes32 => bool) public executedTx;\r\n\r\n    event UserDataStored(address indexed signer, string name, string phoneNumber);\r\n    event SignerRecovered(address indexed recoveredSigner);\r\n\r\n    // ✅ Correctly Hash Message\r\n    function getMessageHash(\r\n        address signer,\r\n        string memory name,\r\n        string memory phoneNumber\r\n    ) public pure returns (bytes32) {\r\n        return keccak256(abi.encodePacked(signer, name, phoneNumber));\r\n    }\r\n\r\n    // ✅ Store User Data\r\n    function storeData(\r\n        address signer,\r\n        string memory name,\r\n        string memory phoneNumber,\r\n        bytes memory signature\r\n    ) public {\r\n        require(signer != address(0), \"Invalid signer\");\r\n\r\n        bytes32 messageHash = getMessageHash(signer, name, phoneNumber);\r\n        require(!executedTx[messageHash], \"Transaction already executed\");\r\n\r\n        address recoveredSigner = recoverSigner(messageHash, signature);\r\n        require(recoveredSigner == signer, \"Invalid signature\");\r\n\r\n        users[signer] = User(name, phoneNumber);\r\n        executedTx[messageHash] = true;\r\n\r\n        emit UserDataStored(signer, name, phoneNumber);\r\n        emit SignerRecovered(recoveredSigner);\r\n    }\r\n\r\n    // ✅ Recover Signer from Signature\r\n    function recoverSigner(bytes32 message, bytes memory signature) public pure returns (address) {\r\n        bytes32 ethSignedMessageHash = keccak256(abi.encodePacked(\"\\x19Ethereum Signed Message:\\n32\", message));\r\n        (bytes32 r, bytes32 s, uint8 v) = splitSignature(signature);\r\n        return ecrecover(ethSignedMessageHash, v, r, s);\r\n    }\r\n\r\n    // ✅ Extract r, s, v from Signature\r\n    function splitSignature(bytes memory sig) public pure returns (bytes32 r, bytes32 s, uint8 v) {\r\n        require(sig.length == 65, \"Invalid signature length\");\r\n        assembly {\r\n            r := mload(add(sig, 32))\r\n            s := mload(add(sig, 64))\r\n            v := byte(0, mload(add(sig, 96)))\r\n        }\r\n    }\r\n}\r\n",
  "sourcePath": "C:\\vikas\\BE\\Projects\\BlockChain\\meta-transaction\\contracts\\MetaTransactionStorage.sol",
  "compiler": {
    "name": "solc",
    "version": "0.5.16+commit.9c3226ce.Emscripten.clang"
  },
  "schemaVersion": "3.4.16",
  "updatedAt": "2025-02-06T12:47:24.866Z",
  "networkType": "ethereum",
  "devdoc": {
    "methods": {}
  },
  "userdoc": {
    "methods": {}
  }
}